{
  "_format": "hh-sol-artifact-1",
  "contractName": "EloquraMasterChef",
  "sourceName": "contracts/EloquraMasterChef.sol",
  "abi": [
    {
      "inputs": [
        {
          "internalType": "contract IERC20",
          "name": "_eloqToken",
          "type": "address"
        },
        {
          "internalType": "uint256",
          "name": "_eloqPerBlock",
          "type": "uint256"
        },
        {
          "internalType": "uint256",
          "name": "_startBlock",
          "type": "uint256"
        },
        {
          "internalType": "address",
          "name": "initialOwner",
          "type": "address"
        }
      ],
      "stateMutability": "nonpayable",
      "type": "constructor"
    },
    {
      "inputs": [
        {
          "internalType": "address",
          "name": "owner",
          "type": "address"
        }
      ],
      "name": "OwnableInvalidOwner",
      "type": "error"
    },
    {
      "inputs": [
        {
          "internalType": "address",
          "name": "account",
          "type": "address"
        }
      ],
      "name": "OwnableUnauthorizedAccount",
      "type": "error"
    },
    {
      "inputs": [
        {
          "internalType": "address",
          "name": "token",
          "type": "address"
        }
      ],
      "name": "SafeERC20FailedOperation",
      "type": "error"
    },
    {
      "anonymous": false,
      "inputs": [
        {
          "indexed": true,
          "internalType": "address",
          "name": "previousOwner",
          "type": "address"
        },
        {
          "indexed": true,
          "internalType": "address",
          "name": "newOwner",
          "type": "address"
        }
      ],
      "name": "OwnershipTransferred",
      "type": "event"
    },
    {
      "inputs": [
        {
          "internalType": "uint256",
          "name": "_allocPoint",
          "type": "uint256"
        },
        {
          "internalType": "contract IERC20",
          "name": "_stakingToken",
          "type": "address"
        },
        {
          "internalType": "bool",
          "name": "_withUpdate",
          "type": "bool"
        }
      ],
      "name": "addPool",
      "outputs": [],
      "stateMutability": "nonpayable",
      "type": "function"
    },
    {
      "inputs": [
        {
          "internalType": "uint256",
          "name": "_pid",
          "type": "uint256"
        },
        {
          "internalType": "uint256",
          "name": "_amount",
          "type": "uint256"
        }
      ],
      "name": "deposit",
      "outputs": [],
      "stateMutability": "nonpayable",
      "type": "function"
    },
    {
      "inputs": [],
      "name": "eloqPerBlock",
      "outputs": [
        {
          "internalType": "uint256",
          "name": "",
          "type": "uint256"
        }
      ],
      "stateMutability": "view",
      "type": "function"
    },
    {
      "inputs": [],
      "name": "eloqToken",
      "outputs": [
        {
          "internalType": "contract IERC20",
          "name": "",
          "type": "address"
        }
      ],
      "stateMutability": "view",
      "type": "function"
    },
    {
      "inputs": [
        {
          "internalType": "uint256",
          "name": "_pid",
          "type": "uint256"
        }
      ],
      "name": "emergencyWithdraw",
      "outputs": [],
      "stateMutability": "nonpayable",
      "type": "function"
    },
    {
      "inputs": [],
      "name": "massUpdatePools",
      "outputs": [],
      "stateMutability": "nonpayable",
      "type": "function"
    },
    {
      "inputs": [],
      "name": "owner",
      "outputs": [
        {
          "internalType": "address",
          "name": "",
          "type": "address"
        }
      ],
      "stateMutability": "view",
      "type": "function"
    },
    {
      "inputs": [
        {
          "internalType": "uint256",
          "name": "_pid",
          "type": "uint256"
        },
        {
          "internalType": "address",
          "name": "_user",
          "type": "address"
        }
      ],
      "name": "pendingELOQ",
      "outputs": [
        {
          "internalType": "uint256",
          "name": "",
          "type": "uint256"
        }
      ],
      "stateMutability": "view",
      "type": "function"
    },
    {
      "inputs": [
        {
          "internalType": "uint256",
          "name": "",
          "type": "uint256"
        }
      ],
      "name": "poolInfo",
      "outputs": [
        {
          "internalType": "contract IERC20",
          "name": "stakingToken",
          "type": "address"
        },
        {
          "internalType": "uint256",
          "name": "allocPoint",
          "type": "uint256"
        },
        {
          "internalType": "uint256",
          "name": "lastRewardBlock",
          "type": "uint256"
        },
        {
          "internalType": "uint256",
          "name": "accELOQPerShare",
          "type": "uint256"
        }
      ],
      "stateMutability": "view",
      "type": "function"
    },
    {
      "inputs": [],
      "name": "poolLength",
      "outputs": [
        {
          "internalType": "uint256",
          "name": "",
          "type": "uint256"
        }
      ],
      "stateMutability": "view",
      "type": "function"
    },
    {
      "inputs": [],
      "name": "renounceOwnership",
      "outputs": [],
      "stateMutability": "nonpayable",
      "type": "function"
    },
    {
      "inputs": [
        {
          "internalType": "uint256",
          "name": "_eloqPerBlock",
          "type": "uint256"
        }
      ],
      "name": "setELOQPerBlock",
      "outputs": [],
      "stateMutability": "nonpayable",
      "type": "function"
    },
    {
      "inputs": [
        {
          "internalType": "uint256",
          "name": "_pid",
          "type": "uint256"
        },
        {
          "internalType": "uint256",
          "name": "_allocPoint",
          "type": "uint256"
        },
        {
          "internalType": "bool",
          "name": "_withUpdate",
          "type": "bool"
        }
      ],
      "name": "setPool",
      "outputs": [],
      "stateMutability": "nonpayable",
      "type": "function"
    },
    {
      "inputs": [],
      "name": "startBlock",
      "outputs": [
        {
          "internalType": "uint256",
          "name": "",
          "type": "uint256"
        }
      ],
      "stateMutability": "view",
      "type": "function"
    },
    {
      "inputs": [],
      "name": "totalAllocPoint",
      "outputs": [
        {
          "internalType": "uint256",
          "name": "",
          "type": "uint256"
        }
      ],
      "stateMutability": "view",
      "type": "function"
    },
    {
      "inputs": [
        {
          "internalType": "address",
          "name": "newOwner",
          "type": "address"
        }
      ],
      "name": "transferOwnership",
      "outputs": [],
      "stateMutability": "nonpayable",
      "type": "function"
    },
    {
      "inputs": [
        {
          "internalType": "uint256",
          "name": "_pid",
          "type": "uint256"
        }
      ],
      "name": "updatePool",
      "outputs": [],
      "stateMutability": "nonpayable",
      "type": "function"
    },
    {
      "inputs": [
        {
          "internalType": "uint256",
          "name": "",
          "type": "uint256"
        },
        {
          "internalType": "address",
          "name": "",
          "type": "address"
        }
      ],
      "name": "userInfo",
      "outputs": [
        {
          "internalType": "uint256",
          "name": "amount",
          "type": "uint256"
        },
        {
          "internalType": "uint256",
          "name": "rewardDebt",
          "type": "uint256"
        }
      ],
      "stateMutability": "view",
      "type": "function"
    },
    {
      "inputs": [
        {
          "internalType": "uint256",
          "name": "_pid",
          "type": "uint256"
        },
        {
          "internalType": "uint256",
          "name": "_amount",
          "type": "uint256"
        }
      ],
      "name": "withdraw",
      "outputs": [],
      "stateMutability": "nonpayable",
      "type": "function"
    }
  ],
  "bytecode": "0x60a060405234801561001057600080fd5b50604051610ff0380380610ff083398101604081905261002f916100ef565b806001600160a01b03811661005e57604051631e4fbdf760e01b81526000600482015260240160405180910390fd5b61006781610087565b50506001600160a01b03909216608052600155600355600060025561013b565b600080546001600160a01b038381166001600160a01b0319831681178455604051919092169283917f8be0079c531659141344cd1fd0a4f28419497f9722a3daafe3b4186f6b6457e09190a35050565b6001600160a01b03811681146100ec57600080fd5b50565b6000806000806080858703121561010557600080fd5b8451610110816100d7565b8094505060208501519250604085015191506060850151610130816100d7565b939692955090935050565b608051610e8c6101646000396000818161029d015281816104060152610a1b0152610e8c6000f3fe608060405234801561001057600080fd5b50600436106101215760003560e01c8063715018a6116100ad57806393f1a40b1161007157806393f1a40b1461023e578063ac52b37814610285578063d904220514610298578063e2bbb158146102bf578063f2fde38b146102d257600080fd5b8063715018a6146101e25780637a9e1448146101ea5780637abceffd146101fd5780638da5cb5b146102105780638ed668971461023557600080fd5b806346ca6bea116100f457806346ca6bea1461019857806348cd4cb1146101ab57806351eb05a6146101b45780635312ea8e146101c7578063630b5ba1146101da57600080fd5b8063081e3eda146101265780631526fe271461013d57806317caf6f11461017a578063441a3e7014610183575b600080fd5b6004545b6040519081526020015b60405180910390f35b61015061014b366004610c76565b6102e5565b604080516001600160a01b0390951685526020850193909352918301526060820152608001610134565b61012a60025481565b610196610191366004610c8f565b610329565b005b6101966101a6366004610cc6565b610492565b61012a60035481565b6101966101c2366004610c76565b610519565b6101966101d5366004610c76565b610652565b6101966106bb565b6101966106e6565b61012a6101f8366004610d10565b6106fa565b61019661020b366004610d40565b6108ae565b6000546001600160a01b03165b6040516001600160a01b039091168152602001610134565b61012a60015481565b61027061024c366004610d10565b60056020908152600092835260408084209091529082529020805460019091015482565b60408051928352602083019190915201610134565b610196610293366004610c76565b610977565b61021d7f000000000000000000000000000000000000000000000000000000000000000081565b6101966102cd366004610c8f565b610984565b6101966102e0366004610d75565b610aa7565b600481815481106102f557600080fd5b600091825260209091206004909102018054600182015460028301546003909301546001600160a01b039092169350919084565b60006004838154811061033e5761033e610d99565b6000918252602080832086845260058252604080852033865290925292208054600490920290920192508311156103b35760405162461bcd60e51b81526020600482015260146024820152730eed2e8d0c8e4c2ee7440dcdee840cadcdeeaced60631b60448201526064015b60405180910390fd5b6103bc84610519565b6000816001015464e8d4a51000846003015484600001546103dd9190610dc5565b6103e79190610ddc565b6103f19190610dfe565b9050801561042d5761042d6001600160a01b037f0000000000000000000000000000000000000000000000000000000000000000163383610ae5565b831561046257838260000160008282546104479190610dfe565b90915550508254610462906001600160a01b03163386610ae5565b6003830154825464e8d4a510009161047991610dc5565b6104839190610ddc565b82600101819055505050505050565b61049a610b49565b80156104a8576104a86106bb565b81600484815481106104bc576104bc610d99565b9060005260206000209060040201600101546002546104db9190610dfe565b6104e59190610e11565b60028190555081600484815481106104ff576104ff610d99565b906000526020600020906004020160010181905550505050565b60006004828154811061052e5761052e610d99565b906000526020600020906004020190508060020154431161054d575050565b80546040516370a0823160e01b81523060048201526000916001600160a01b0316906370a0823190602401602060405180830381865afa158015610595573d6000803e3d6000fd5b505050506040513d601f19601f820116820180604052508101906105b99190610e24565b9050806000036105ce57504360029091015550565b60008260020154436105e09190610dfe565b905060006002548460010154600154846105fa9190610dc5565b6106049190610dc5565b61060e9190610ddc565b9050826106208264e8d4a51000610dc5565b61062a9190610ddc565b84600301600082825461063d9190610e11565b90915550504360029094019390935550505050565b60006004828154811061066757610667610d99565b600091825260208083208584526005825260408085203380875293529093208054600490930290930180549094506106ac926001600160a01b03919091169190610ae5565b60008082556001909101555050565b60045460005b818110156106e2576106d281610519565b6106db81610e3d565b90506106c1565b5050565b6106ee610b49565b6106f86000610b76565b565b6000806004848154811061071057610710610d99565b6000918252602080832060408051608081018252600494850290920180546001600160a01b03908116845260018083015485870152600283015485850152600390920154606085019081528b8852600586528388208b8316895286528388208451808601865281548152930154958301959095529351835192516370a0823160e01b81523096810196909652929650949193919216906370a0823190602401602060405180830381865afa1580156107cc573d6000803e3d6000fd5b505050506040513d601f19601f820116820180604052508101906107f09190610e24565b905083604001514311801561080457508015155b1561087457600084604001514361081b9190610dfe565b905060006002548660200151600154846108359190610dc5565b61083f9190610dc5565b6108499190610ddc565b90508261085b8264e8d4a51000610dc5565b6108659190610ddc565b61086f9085610e11565b935050505b6020830151835164e8d4a510009061088d908590610dc5565b6108979190610ddc565b6108a19190610dfe565b9450505050505b92915050565b6108b6610b49565b80156108c4576108c46106bb565b82600260008282546108d69190610e11565b9250508190555060046040518060800160405280846001600160a01b03168152602001858152602001600354431161091057600354610912565b435b81526000602091820181905283546001808201865594825290829020835160049092020180546001600160a01b0319166001600160a01b0390921691909117815590820151928101929092556040810151600283015560600151600390910155505050565b61097f610b49565b600155565b60006004838154811061099957610999610d99565b600091825260208083208684526005825260408085203386529092529220600490910290910191506109ca84610519565b805415610a44576000816001015464e8d4a51000846003015484600001546109f29190610dc5565b6109fc9190610ddc565b610a069190610dfe565b90508015610a4257610a426001600160a01b037f0000000000000000000000000000000000000000000000000000000000000000163383610ae5565b505b8215610a7b578154610a61906001600160a01b0316333086610bc6565b82816000016000828254610a759190610e11565b90915550505b6003820154815464e8d4a5100091610a9291610dc5565b610a9c9190610ddc565b600190910155505050565b610aaf610b49565b6001600160a01b038116610ad957604051631e4fbdf760e01b8152600060048201526024016103aa565b610ae281610b76565b50565b6040516001600160a01b03838116602483015260448201839052610b4491859182169063a9059cbb906064015b604051602081830303815290604052915060e01b6020820180516001600160e01b038381831617835250505050610c05565b505050565b6000546001600160a01b031633146106f85760405163118cdaa760e01b81523360048201526024016103aa565b600080546001600160a01b038381166001600160a01b0319831681178455604051919092169283917f8be0079c531659141344cd1fd0a4f28419497f9722a3daafe3b4186f6b6457e09190a35050565b6040516001600160a01b038481166024830152838116604483015260648201839052610bff9186918216906323b872dd90608401610b12565b50505050565b600080602060008451602086016000885af180610c28576040513d6000823e3d81fd5b50506000513d91508115610c40578060011415610c4d565b6001600160a01b0384163b155b15610bff57604051635274afe760e01b81526001600160a01b03851660048201526024016103aa565b600060208284031215610c8857600080fd5b5035919050565b60008060408385031215610ca257600080fd5b50508035926020909101359150565b80358015158114610cc157600080fd5b919050565b600080600060608486031215610cdb57600080fd5b8335925060208401359150610cf260408501610cb1565b90509250925092565b6001600160a01b0381168114610ae257600080fd5b60008060408385031215610d2357600080fd5b823591506020830135610d3581610cfb565b809150509250929050565b600080600060608486031215610d5557600080fd5b833592506020840135610d6781610cfb565b9150610cf260408501610cb1565b600060208284031215610d8757600080fd5b8135610d9281610cfb565b9392505050565b634e487b7160e01b600052603260045260246000fd5b634e487b7160e01b600052601160045260246000fd5b80820281158282048414176108a8576108a8610daf565b600082610df957634e487b7160e01b600052601260045260246000fd5b500490565b818103818111156108a8576108a8610daf565b808201808211156108a8576108a8610daf565b600060208284031215610e3657600080fd5b5051919050565b600060018201610e4f57610e4f610daf565b506001019056fea2646970667358221220112e472a7ff28a0ba552c0850dbec9a1bfebe8fca7b78a782ebe193c081896d064736f6c63430008140033",
  "linkReferences": {},
  "deployedLinkReferences": {}
}